:100000000C945D000C9485000C9485000C94850084
:100010000C9485000C9485000C9485000C9485004C
:100020000C9485000C9485000C9485000C9485003C
:100030000C9485000C9485000C9485000C9485002C
:100040000C9466020C9485000C9434020C940E02FD
:100050000C9485000C9485000C9485000C9485000C
:100060000C9485000C9485000000000024002700FB
:100070002A0000000000250028002B0004040404CE
:100080000404040402020202020203030303030342
:10009000010204081020408001020408102001021F
:1000A00004081020000000080002010000030407FB
:1000B0000000000000000000F50311241FBECFEF78
:1000C000D8E0DEBFCDBF11E0A0E0B1E0E8E9F8E0A4
:1000D00002C005900D92AA32B107D9F721E0AAE239
:1000E000B1E001C01D92A23DB207E1F710E0CDE5FD
:1000F000D0E004C02197FE010E944404CC35D10712
:10010000C9F70E94B0020C944A040C940000E1EB81
:10011000F0E02491EDE9F0E09491E9E8F0E0E49179
:10012000EE23C9F0222339F0233001F1A8F4213065
:1001300019F1223029F1F0E0EE0FFF1FEE58FF4FCA
:10014000A591B4912FB7F894EC91811126C09095A8
:100150009E239C932FBF08952730A9F02830C9F023
:10016000243049F7209180002F7D03C0209180002A
:100170002F7720938000DFCF24B52F7724BDDBCFEE
:1001800024B52F7DFBCF2091B0002F772093B000B6
:10019000D2CF2091B0002F7DF9CF9E2BDACFAF9236
:1001A000BF92CF92DF92EF92FF920F931F93CF9364
:1001B000DF936C017B018B01040F151FEB015E01C6
:1001C000AE18BF08C017D10759F06991D601ED915B
:1001D000FC910190F081E02DC6010995892B79F7FA
:1001E000C501DF91CF911F910F91FF90EF90DF90AC
:1001F000CF90BF90AF900895FC01538D448D252F73
:1002000030E0842F90E0821B930B541710F0CF96B0
:10021000089501970895FC01918D828D981761F0E2
:10022000A28DAE0FBF2FB11D5D968C91928D9F5FF9
:100230009F73928F90E008958FEF9FEF0895FC01D8
:10024000918D828D981731F0828DE80FF11D858D8B
:1002500090E008958FEF9FEF0895FC01918D228D1E
:10026000892F90E0805C9F4F821B91098F739927A3
:10027000089585E391E00E942D0121E0892B09F486
:1002800020E0822F089580E090E0892B29F00E94E1
:10029000390181110C9400000895FC01A48DA80F70
:1002A000B92FB11DA35ABF4F2C91848D90E00196B8
:1002B0008F739927848FA689B7892C93A089B189D8
:1002C0008C91837080648C93938D848D981306C079
:1002D0000288F389E02D80818F7D80830895EF92DD
:1002E000FF920F931F93CF93DF93EC0181E0888FF0
:1002F0009B8D8C8D98131AC0E889F989808185FFC0
:1003000015C09FB7F894EE89FF896083E889F98961
:1003100080818370806480839FBF81E090E0DF9163
:10032000CF911F910F91FF90EF900895F62E0B8DB6
:1003300010E00F5F1F4F0F731127E02E8C8D8E1171
:100340000CC00FB607FCFACFE889F989808185FFD8
:10035000F5CFCE010E944D01F1CFEB8DEC0FFD2FBB
:10036000F11DE35AFF4FF0829FB7F8940B8FEA8993
:10037000FB8980818062CFCFCF93DF93EC01888DA2
:100380008823B9F0AA89BB89E889F9898C9185FD10
:1003900003C0808186FD0DC00FB607FCF7CF8C919E
:1003A00085FFF2CF808185FFEDCFCE010E944D0108
:1003B000E9CFDF91CF9108953FB7F89480912F0155
:1003C00090913001A0913101B091320126B5A89BE6
:1003D00005C02F3F19F00196A11DB11D3FBFBA2FD7
:1003E000A92F982F8827BC01CD01620F711D811D97
:1003F000911D42E0660F771F881F991F4A95D1F71C
:100400000895FC0101900020E9F73197AF01481BE6
:10041000590BBC0185E391E00C94CF001F920F9221
:100420000FB60F9211242F933F934F935F936F93C7
:100430007F938F939F93AF93BF93EF93FF9385E346
:1004400091E00E944D01FF91EF91BF91AF919F917B
:100450008F917F916F915F914F913F912F910F906D
:100460000FBE0F901F9018951F920F920FB60F920C
:1004700011242F938F939F93EF93FF93E091450166
:10048000F09146018081E0914B01F0914C0182FD99
:100490001BC0908180914E018F5F8F7320914F011F
:1004A000821741F0E0914E01F0E0EB5CFE4F958F3A
:1004B00080934E01FF91EF919F918F912F910F901B
:1004C0000FBE0F901F9018958081F4CF1F920F924E
:1004D0000FB60F9211242F933F938F939F93AF9357
:1004E000BF9380912B0190912C01A0912D01B0918F
:1004F0002E0130912A0123E0230F2D3758F5019664
:10050000A11DB11D20932A0180932B0190932C01F2
:10051000A0932D01B0932E0180912F019091300175
:10052000A0913101B09132010196A11DB11D8093BE
:100530002F0190933001A0933101B0933201BF910C
:10054000AF919F918F913F912F910F900FBE0F9080
:100550001F90189526E8230F0296A11DB11DD2CF3A
:10056000CF93DF93CDB7DEB7A1970FB6F894DEBF78
:100570000FBECDBF789484B5826084BD84B58160A0
:1005800084BD85B5826085BD85B5816085BD80915E
:100590006E00816080936E001092810080918100D6
:1005A00082608093810080918100816080938100CE
:1005B000809180008160809380008091B100846090
:1005C0008093B1008091B00081608093B0008091F1
:1005D0007A00846080937A0080917A0082608093B0
:1005E0007A0080917A00816080937A0080917A000D
:1005F000806880937A001092C100EDE9F0E02491C8
:10060000E9E8F0E08491882399F090E0880F991F41
:10061000FC01E859FF4FA591B491FC01EE58FF4F42
:10062000859194918FB7F894EC91E22BEC938FBF66
:10063000E0914501F091460182E08083E091410123
:10064000F09142011082E0914301F09144018FEC5E
:10065000808310924D01E0914901F0914A0186E0BA
:100660008083E0914701F09148018081806180831F
:10067000E0914701F0914801808188608083E0919A
:100680004701F0914801808180688083E0914701B3
:10069000F091480180818F7D808390E4392E2AE09B
:1006A000822E912CA12CB12C00E010E030927C0025
:1006B00080917A00806480937A0080917A0086FD30
:1006C000FCCF90917800809179008927982789271D
:1006D000909334018093330182E191E00E94010202
:1006E000C0903301D09034010D2C000CEE08FF08AF
:1006F000F7FE63C06DE285E391E00E946F0122275F
:100700003327A9012C193D094E095F0919A2CE0111
:1007100081967C01CA01B901A50194010E942204BD
:10072000605DF70162937F01211531054105510597
:1007300089F7E114F10419F0C7010E94010287E270
:1007400091E00E940102809133019091340145971C
:100750000CF049C081E00E9487000E94DC012B015F
:100760003C018AE0C82ED12CE12CF12C0E94DC0146
:100770006419750986099709683E734081059105DA
:10078000A8F3F1E0CF1AD108E108F10828EE420EF3
:1007900023E0521E611C711CC114D104E104F10458
:1007A00029F70115110509F481CF0E943901882329
:1007B00009F47CCF0E94000079CFA701960119A20D
:1007C000CE0181967C01CA01B901A50194010E9464
:1007D0002204605DF70162937F0121153105410517
:1007E000510589F7A6CF80E0B6CFE5E3F1E01382AB
:1007F000128288EE93E0A0E0B0E084839583A68324
:10080000B78384E091E09183808385EC90E09587C5
:10081000848784EC90E09787868780EC90E0918BCA
:10082000808B81EC90E0938B828B82EC90E0958BB7
:10083000848B86EC90E0978B868B118E128E138EB4
:10084000148E0895A1E21A2EAA1BBB1BFD010DC038
:10085000AA1FBB1FEE1FFF1FA217B307E407F50770
:1008600020F0A21BB30BE40BF50B661F771F881F4C
:10087000991F1A9469F760957095809590959B01E2
:10088000AC01BD01CF010895EE0FFF1F0590F4915B
:08089000E02D0994F894FFCF5C
:10089800000000006F01CF00FC00BC012D010B011E
:1008A8001F01456C2073656E736F722064657675E1
:0A08B800656C76653A20000D0A0019
:00000001FF
