:100000000C945D000C9485000C9485000C94850084
:100010000C9485000C9485000C9485000C9485004C
:100020000C9485000C9485000C9485000C9485003C
:100030000C9485000C9485000C9485000C9485002C
:100040000C94F9010C9485000C94C7010C94A10147
:100050000C9485000C9485000C9485000C9485000C
:100060000C9485000C9485000000000024002700FB
:100070002A0000000000250028002B0004040404CE
:100080000404040402020202020203030303030342
:10009000010204081020408001020408102001021F
:1000A00004081020000000080002010000030407FB
:1000B0000000000000000000F50311241FBECFEF78
:1000C000D8E0DEBFCDBF11E0A0E0B1E0E2E0F9E0B2
:1000D00002C005900D92AA32B107D9F721E0AAE239
:1000E000B1E001C01D92A73DB207E1F710E0CDE5F8
:1000F000D0E004C02197FE010E947904CC35D107DD
:10010000C9F70E9443020C947F040C940000AF9244
:10011000BF92CF92DF92EF92FF920F931F93CF93F4
:10012000DF936C017B018B01040F151FEB015E0156
:10013000AE18BF08C017D10759F06991D601ED91EB
:10014000FC910190F081E02DC6010995892B79F78A
:10015000C501DF91CF911F910F91FF90EF90DF903C
:10016000CF90BF90AF900895FC01538D448D252F03
:1001700030E0842F90E0821B930B541710F0CF9641
:10018000089501970895FC01918D828D981761F073
:10019000A28DAE0FBF2FB11D5D968C91928D9F5F8A
:1001A0009F73928F90E008958FEF9FEF0895FC0169
:1001B000918D828D981731F0828DE80FF11D858D1C
:1001C00090E008958FEF9FEF0895FC01918D228DAF
:1001D000892F90E0805C9F4F821B91098F73992734
:1001E00008958AE391E00E94E50021E0892B09F45B
:1001F00020E0822F089580E090E0892B29F00E9472
:10020000F10081110C9400000895FC01A48DA80F49
:10021000B92FB11DA35ABF4F2C91848D90E0019648
:100220008F739927848FA689B7892C93A089B18968
:100230008C91837080648C93938D848D981306C009
:100240000288F389E02D80818F7D80830895EF926D
:10025000FF920F931F93CF93DF93EC0181E0888F80
:100260009B8D8C8D98131AC0E889F989808185FF50
:1002700015C09FB7F894EE89FF896083E889F989F2
:1002800080818370806480839FBF81E090E0DF91F4
:10029000CF911F910F91FF90EF900895F62E0B8D47
:1002A00010E00F5F1F4F0F731127E02E8C8D8E1102
:1002B0000CC00FB607FCFACFE889F989808185FF69
:1002C000F5CFCE010E940501F1CFEB8DEC0FFD2F94
:1002D000F11DE35AFF4FF0829FB7F8940B8FEA8924
:1002E000FB8980818062CFCFCF93DF93EC01888D33
:1002F0008823B9F0AA89BB89E889F9898C9185FDA1
:1003000003C0808186FD0DC00FB607FCF7CF8C912E
:1003100085FFF2CF808185FFEDCFCE010E940501E0
:10032000E9CFDF91CF910895FC0101900020E9F71A
:100330003197AF01481B590BBC018AE391E00C9443
:1003400087001F920F920FB60F9211242F933F93A5
:100350004F935F936F937F938F939F93AF93BF93CD
:10036000EF93FF938AE391E00E940501FF91EF91E3
:10037000BF91AF919F918F917F916F915F914F91BD
:100380003F912F910F900FBE0F901F9018951F92C5
:100390000F920FB60F9211242F938F939F93EF9389
:1003A000FF93E0914A01F0914B018081E09150016F
:1003B000F091510182FD1BC09081809153018F5FAC
:1003C0008F7320915401821741F0E0915301F0E0C6
:1003D000E65CFE4F958F80935301FF91EF919F91C3
:1003E0008F912F910F900FBE0F901F9018958081C5
:1003F000F4CF1F920F920FB60F9211242F933F93B9
:100400008F939F93AF93BF9380912F019091300171
:10041000A0913101B091320130912E0123E0230FE0
:100420002D3758F50196A11DB11D20932E01809303
:100430002F0190933001A0933101B093320180914C
:100440002A0190912B01A0912C01B0912D010196D0
:10045000A11DB11D80932A0190932B01A0932C0123
:10046000B0932D01BF91AF919F918F913F912F91AB
:100470000F900FBE0F901F90189526E8230F02963D
:10048000A11DB11DD2CFCF93DF93CDB7DEB7A1971A
:100490000FB6F894DEBF0FBECDBF789484B58260EE
:1004A00084BD84B5816084BD85B5826085BD85B518
:1004B000816085BD80916E00816080936E00109296
:1004C0008100809181008260809381008091810011
:1004D00081608093810080918000816080938000A2
:1004E0008091B10084608093B1008091B000816000
:1004F0008093B00080917A00846080937A0080912C
:100500007A00826080937A0080917A008160809383
:100510007A0080917A00806880937A001092C100FE
:10052000EAE9F0E0249166E8262E60E0362EF1013B
:100530008491882399F090E0880F991FFC01E85975
:10054000FF4FA591B491FC01EE58FF4F8591949116
:100550008FB7F8949C91292B2C938FBFE0914A017F
:10056000F0914B0182E08083E0914601F0914701D8
:100570001082E0914801F09149018FEC8083109244
:100580005201E0914E01F0914F0186E08083E091AD
:100590004C01F0914D01808180618083E0914C019C
:1005A000F0914D01808188608083E0914C01F09151
:1005B0004D01808180688083E0914C01F0914D0174
:1005C00080818F7D808344244A9433E0532E612CB4
:1005D000712C4AE0C42ED12CE12CF12CF0E4F093E4
:1005E0007C0080917A00806480937A0080917A0008
:1005F00086FDFCCF80917800A0917900BA2FA82FBA
:100600002CE637E00E947204A30192010E942204AA
:100610002C593F4F4F4F5F4F309339012093380192
:1006200082E191E00E94940180903801909039011C
:10063000092C000CAA08BB08B7FE9CC06DE28AE337
:1006400091E00E94270122273327A901281939099F
:100650004A095B0919A28E010F5D1F4FCA01B9013A
:10066000A70196010E944104605DF80162938F0129
:10067000211531054105510589F70115110519F0BD
:10068000C8010E94940187E291E00E9494018FB713
:10069000F89440912F015091300160913101709197
:1006A00032018FBF8091380190913901092E000CE1
:1006B000AA0BBB0B0091340110913501209136013A
:1006C00030913701800F911FA21FB31F8417950728
:1006D000A607B70708F041C02FB7F89480912F0103
:1006E00090913001A0913101B09132012FBF8093E0
:1006F000340190933501A0933601B0933701909166
:100700003301F1E09F2790933301EEEAF0E024916A
:10071000EAE9F0E08491F10134913323F1F02223EE
:1007200059F0233009F447C008F03AC0213009F4E9
:1007300048C0223009F449C0E32FF0E0EE0FFF1F5C
:10074000EE58FF4FA591B4912FB7F89491114AC07C
:100750009C91809589238C932FBF80E090E0892B1A
:1007600009F43CCF0E94F100882309F437CF0E949E
:10077000000034CFA501940119A28E010F5D1F4F17
:10078000CA01B901A70196010E944104605DF80108
:1007900062938F01211531054105510589F76DCF10
:1007A0002730B1F02830D1F0243009F0C5CF2091A6
:1007B00080002F7D03C0209180002F772093800040
:1007C000BBCF24B52F7724BDB7CF24B52F7DFBCF6A
:1007D0002091B0002F772093B000AECF2091B000D1
:1007E0002F7DF9CF9C91892BB6CFEAE3F1E01382FC
:1007F000128288EE93E0A0E0B0E084839583A68324
:10080000B78384E091E09183808385EC90E09587C5
:10081000848784EC90E09787868780EC90E0918BCA
:10082000808B81EC90E0938B828B82EC90E0958BB7
:10083000848B86EC90E0978B868B118E128E138EB4
:10084000148E0895052E97FB1EF400940E9439041F
:1008500057FD07D00E94410407FC03D04EF40C94CE
:10086000390450954095309521953F4F4F4F5F4F3C
:10087000089590958095709561957F4F8F4F9F4F0C
:100880000895A1E21A2EAA1BBB1BFD010DC0AA1FD1
:10089000BB1FEE1FFF1FA217B307E407F50720F0E9
:1008A000A21BB30BE40BF50B661F771F881F991F64
:1008B0001A9469F760957095809590959B01AC01AD
:1008C000BD01CF010895A29FB001B39FC001A39FB6
:1008D000700D811D1124911DB29F700D811D112479
:1008E000911D08950E946304B7FF0895821B930B26
:1008F0000895EE0FFF1F0590F491E02D0994F894F0
:02090000FFCF27
:100902000000000027018700B4007401E500C30065
:10091200D7004C612066756E63696F6E20726574D4
:0A0922006F726E613A20000D0A00AA
:00000001FF
