:100000000C945C000C9479000C9479000C947900A9
:100010000C9479000C9479000C9479000C9479007C
:100020000C9479000C9479000C9479000C9479006C
:100030000C9479000C9479000C9479000C9479005C
:100040000C94A0000C9479000C9479000C94790025
:100050000C9479000C9479000C9479000C9479003C
:100060000C9479000C947900000000002400270013
:100070002A0000000000250028002B0004040404CE
:100080000404040402020202020203030303030342
:10009000010204081020408001020408102001021F
:1000A00004081020000000080002010000030407FB
:1000B000000000000000000011241FBECFEFD8E0B8
:1000C000DEBFCDBF11E0A0E0B1E0ECECF3E002C098
:1000D00005900D92A035B107D9F721E0A0E5B1E078
:1000E00001C01D92A935B207E1F70E94EA000C9405
:1000F000E4010C9400003FB7F89480915501909171
:100100005601A0915701B091580126B5A89B05C092
:100110002F3F19F00196A11DB11D3FBFBA2FA92F86
:10012000982F8827BC01CD01620F711D811D911D83
:1001300042E0660F771F881F991F4A95D1F70895EF
:100140001F920F920FB60F9211242F933F938F930C
:100150009F93AF93BF938091510190915201A091D1
:100160005301B09154013091500123E0230F2D37FA
:1001700058F50196A11DB11D2093500180935101A6
:1001800090935201A0935301B09354018091550173
:1001900090915601A0915701B09158010196A11D6F
:1001A000B11D8093550190935601A0935701B093D0
:1001B0005801BF91AF919F918F913F912F910F90D7
:1001C0000FBE0F901F90189526E8230F0296A11DD1
:1001D000B11DD2CF789484B5826084BD84B581602E
:1001E00084BD85B5826085BD85B5816085BD809102
:1001F0006E00816080936E0010928100809181007A
:100200008260809381008091810081608093810071
:10021000809180008160809380008091B100846033
:100220008093B1008091B00081608093B000809194
:100230007A00846080937A0080917A008260809353
:100240007A0080917A00816080937A0080917A00B0
:10025000806880937A001092C10022E030E0F901BA
:10026000E057FF4F4491F901E458FF4F84918823F0
:1002700099F090E0880F991FFC01E859FF4FA59174
:10028000B491FC01EE58FF4F859194918FB7F8948B
:10029000EC91E42BEC938FBF2F5F3F4F293031055A
:1002A000F1F600E511E040E0E42E40E0F42EC0E07D
:1002B000D1E090E080E0FC01EA55FF4F3491FC0171
:1002C000EE56FF4F2491FC01E258FF4FE491EE23DC
:1002D00009F1DE01A80FB91F4C91332359F03330D7
:1002E00009F459C008F04CC0313009F45AC032301A
:1002F00009F45BC0F0E0EE0FFF1FEE58FF4FA59131
:10030000B4913FB7F894EC9141115CC020952E2335
:100310002C933FBF01968830910509F0CCCF0E9405
:100320007B002B013C0188EE882E83E0982EA12CC7
:10033000B12C0E947B006419750986099709683EF3
:10034000734081059105A8F321E0821A9108A10864
:10035000B10888EE480E83E0581E611C711C8114A0
:100360009104A104B10429F728960C171D0709F080
:10037000A0CFE114F10409F49ACF0E94000097CFB6
:100380003730B1F03830D1F0343009F0B3CF30919C
:1003900080003F7D03C0309180003F773093800024
:1003A000A9CF34B53F7734BDA5CF34B53F7DFBCF62
:1003B0003091B0003F773093B0009CCF3091B000C7
:0C03C0003F7DF9CF2E2BA4CFF894FFCF87
:1003CC000000000000000101010000010101010119
:1003DC00000001000001000100000000010100010B
:1003EC0001000001010000010001000001000001FA
:1003FC0000010000000000010000000101010101EA
:10040C0000000000000000010000000101000001DC
:00000001FF
