:100000000C9462000C948A000C948A000C948A0070
:100010000C948A000C948A000C948A000C948A0038
:100020000C948A000C948A000C948A000C948A0028
:100030000C948A000C948A000C948A000C948A0018
:100040000C946F020C948A000C943D020C941702DD
:100050000C948A000C948A000C948A000C948A00F8
:100060000C948A000C948A00000000080002010031
:100070000003040700000000000000000000000072
:10008000250028002B0000000000240027002A0083
:1000900000000000230026002900040404040404D6
:1000A0000404020202020202030303030303010227
:1000B00004081020408001020408102001020408F6
:1000C00010207E0411241FBECFEFD8E0DEBFCDBFCD
:1000D00011E0A0E0B1E0ECE1FAE002C005900D9281
:1000E000A832B107D9F721E0A8E2B1E001C01D9222
:1000F000AE3CB207E1F710E0C2E6D0E004C02197C1
:10010000FE010E94F704C136D107C9F70E94FE0222
:100110000C940C050C940000AF92BF92CF92DF922A
:10012000EF92FF920F931F93CF93DF936C017B01AC
:100130008B01040F151FEB015E01AE18BF08C0173D
:10014000D10759F06991D601ED91FC910190F081B0
:10015000E02DC6010995892B79F7C501DF91CF9173
:100160001F910F91FF90EF90DF90CF90BF90AF90D5
:100170000895FC01538D448D252F30E0842F90E0AD
:10018000821B930B541710F0CF9608950197089592
:10019000FC01918D828D981761F0A28DAE0FBF2F5B
:1001A000B11D5D968C91928D9F5F9F73928F90E0B1
:1001B00008958FEF9FEF0895FC01918D828D981720
:1001C00031F0828DE80FF11D858D90E008958FEF5D
:1001D0009FEF0895FC01918D228D892F90E0805C26
:1001E0009F4F821B91098F739927089581E391E0B6
:1001F0000E94EA0021E0892B09F420E0822F089573
:1002000080E090E0892B29F00E94F60081110C9487
:1002100000000895FC01A48DA80FB92FB11DA35AA9
:10022000BF4F2C91848D90E001968F739927848F16
:10023000A689B7892C93A089B1898C918370806439
:100240008C93938D848D981306C00288F389E02DDA
:1002500080818F7D80830895EF92FF920F931F938B
:10026000CF93DF93EC0181E0888F9B8D8C8D981369
:100270001AC0E889F989808185FF15C09FB7F89475
:10028000EE89FF896083E889F989808183708064C1
:1002900080839FBF81E090E0DF91CF911F910F910C
:1002A000FF90EF900895F62E0B8D10E00F5F1F4F1B
:1002B0000F731127E02E8C8D8E110CC00FB607FC2A
:1002C000FACFE889F989808185FFF5CFCE010E94B8
:1002D0000A01F1CFEB8DEC0FFD2FF11DE35AFF4F1B
:1002E000F0829FB7F8940B8FEA89FB898081806246
:1002F000CFCFCF93DF93EC01888D8823B9F0AA8903
:10030000BB89E889F9898C9185FD03C0808186FDD0
:100310000DC00FB607FCF7CF8C9185FFF2CF80811F
:1003200085FFEDCFCE010E940A01E9CFDF91CF9189
:10033000089590E0FC01E859FF4F2491FC01E2553B
:10034000FF4F3491FC01E656FF4FE491EE23C9F0D4
:10035000222339F0233001F1A8F4213019F12230A1
:1003600029F1F0E0EE0FFF1FE458FF4FA591B49183
:100370008FB7F894EC91611126C030953E233C93E1
:100380008FBF08952730A9F02830C9F0243049F7ED
:10039000809180008F7D03C0809180008F77809353
:1003A0008000DFCF84B58F7784BDDBCF84B58F7DB0
:1003B000FBCF8091B0008F778093B000D2CF809137
:1003C000B0008F7DF9CF3E2BDACF3FB7F894809104
:1003D0002D0190912E01A0912F01B091300126B5F1
:1003E000A89B05C02F3F19F00196A11DB11D3FBF6D
:1003F000BA2FA92F982F8827BC01CD01620F711D3C
:10040000811D911D42E0660F771F881F991F4A9535
:10041000D1F70895FC0101900020E9F73197AF0171
:10042000481B590BBC0181E391E00C948C001F9296
:100430000F920FB60F9211242F933F934F935F9318
:100440006F937F938F939F93AF93BF93EF93FF939C
:1004500081E391E00E940A01FF91EF91BF91AF917A
:100460009F918F917F916F915F914F913F912F91CC
:100470000F900FBE0F901F9018951F920F920FB6FE
:100480000F9211242F938F939F93EF93FF93E091FB
:100490004101F09142018081E0914701F0914801D2
:1004A00082FD1BC0908180914A018F5F8F732091E4
:1004B0004B01821741F0E0914A01F0E0EF5CFE4F02
:1004C000958F80934A01FF91EF919F918F912F918A
:1004D0000F900FBE0F901F9018958081F4CF1F9240
:1004E0000F920FB60F9211242F933F938F939F93E8
:1004F000AF93BF938091290190912A01A0912B0184
:10050000B0912C013091280123E0230F2D3758F5AD
:100510000196A11DB11D209328018093290190937C
:100520002A01A0932B01B0932C0180912D01909171
:100530002E01A0912F01B09130010196A11DB11D96
:1005400080932D0190932E01A0932F01B093300141
:10055000BF91AF919F918F913F912F910F900FBEBF
:100560000F901F90189526E8230F0296A11DB11D2C
:10057000D2CFCF92DF92EF92FF920F931F93E82F8B
:10058000F92F05C0015011092109310961F190814C
:1005900096239417B9F305C00150110921093109B7
:1005A00011F1908196239413F7CFC12CD12CE12C1B
:1005B000F12C0AC08FEFC81AD80AE80AF80A0C15FD
:1005C0001D052E053F0579F080818623841791F360
:1005D0006C2D7D2D8E2D9F2D1F910F91FF90EF90F3
:1005E000DF90CF90089560E070E080E090E01F9190
:1005F0000F91FF90EF90DF90CF900895CF93DF930E
:10060000CDB7DEB7A1970FB6F894DEBF0FBECDBF52
:10061000789484B5826084BD84B5816084BD85B5DD
:10062000826085BD85B5816085BD80916E008160E9
:1006300080936E001092810080918100826080938F
:100640008100809181008160809381008091800091
:100650008160809380008091B10084608093B100BC
:100660008091B00081608093B00080917A008460B6
:1006700080937A0080917A00826080937A008091E2
:100680007A00816080937A0080917A0080688093FC
:100690007A001092C100E0914101F091420182E0A4
:1006A0008083E0913D01F0913E011082E0913F0195
:1006B000F09140018FEC808310924901E091450157
:1006C000F091460186E08083E0914301F09144017E
:1006D000808180618083E0914301F09144018081B9
:1006E00088608083E0914301F091440180818068BB
:1006F0008083E0914301F091440180818F7D80836C
:10070000E0EBF0E02491ECE9F0E08491882399F0AB
:1007100090E0880F991FFC01EA57FF4FA591B49113
:10072000FC01E458FF4F859194918FB7F894EC91B8
:10073000E22BEC938FBFE1EBF0E02491EDE9F0E0E8
:1007400084918823C9F090E0880F991FFC01EA5733
:10075000FF4FA591B491FC01E458FF4F459154918E
:100760003FB7F8949C91822F809598239C93FA012F
:100770009081892380833FBF2AE0422E512C612C37
:10078000712C30E0232E30E0332E60E082E00E94B6
:1007900099018BE090E00197F1F761E082E00E941F
:1007A000990183E290E00197F1F760E082E00E9416
:1007B0009901E1EBF0E06491EDE9F0E08491E82F3C
:1007C000F0E0EE0FFF1FE057FF4F8591949100E49A
:1007D00012E42FE030E0462F0E94B9029B01AC01E9
:1007E000211531054105510529F02F5F3F4F4F4F2E
:1007F0005F4F5F70AAE0B0E00E94EC0428E432E0B2
:1008000040E050E00E94CD04690182E191E00E9445
:100810000A020D2C000CEE08FF08F7FE59C06DE22D
:1008200081E391E00E942C0122273327A9012C1992
:100830003D094E095F0919A2CE0181967C01CA01CA
:10084000B901A30192010E94AB04605DF7016293BC
:100850007F01211531054105510589F7E114F104A6
:1008600019F0C7010E940A0284E291E00E940A0284
:100870000E94E5014B015C018AE0C82ED12CE12CDD
:10088000F12C0E94E501681979098A099B09683EE3
:10089000734081059105A8F3F1E0CF1AD108E10872
:1008A000F10828EE820E23E0921EA11CB11CC11497
:1008B000D104E104F10429F72114310409F465CFCE
:1008C0000E94F600882309F460CF0E9400005DCFEB
:1008D000A701960119A2CE0181967C01CA01B90136
:1008E000A30192010E94AB04605DF70162937F0156
:1008F000211531054105510589F7B0CFE1E3F1E05C
:100900001382128288EE93E0A0E0B0E084839583A6
:10091000A683B78384E091E09183808385EC90E0A7
:100920009587848784EC90E09787868780EC90E0B9
:10093000918B808B81EC90E0938B828B82EC90E0AA
:10094000958B848B86EC90E0978B868B118E128E24
:10095000138E148E0895A1E21A2EAA1BBB1BFD0153
:100960000DC0AA1FBB1FEE1FFF1FA217B307E4078E
:10097000F50720F0A21BB30BE40BF50B661F771FE6
:10098000881F991F1A9469F76095709580959095C6
:100990009B01AC01BD01CF010895052E97FB1EF40C
:1009A00000940E94E40457FD07D00E94AB0407FCAA
:1009B00003D04EF40C94E404509540953095219565
:1009C0003F4F4F4F5F4F089590958095709561957B
:1009D0007F4F8F4F9F4F08950E94FD04A59F900D5C
:1009E000B49F900DA49F800D911D11240895EE0FCA
:1009F000FF1F0590F491E02D0994A29FB001B39FD1
:100A0000C001A39F700D811D1124911DB29F700D17
:0C0A1000811D1124911D0895F894FFCF62
:100A1C00000000002C018C00B9007901EA00C8002C
:100A2C00DC0044697374616E63696120656E2043F8
:080A3C004D3A20000D0A0000F4
:00000001FF
