:100000000C9462000C948A000C948A000C948A0070
:100010000C948A000C948A000C948A000C948A0038
:100020000C948A000C948A000C948A000C948A0028
:100030000C948A000C948A000C948A000C948A0018
:100040000C94D4020C948A000C94A2020C947C02AE
:100050000C948A000C948A000C948A000C948A00F8
:100060000C948A000C948A000000000024002700F1
:100070002A0000000000250028002B0000000000DE
:1000800023002600290004040404040404040202DA
:100090000202020203030303030301020408102007
:1000A0004080010204081020010204081020000012
:1000B0000008000201000003040700000000000027
:1000C00000001E0311241FBECFEFD8E0DEBFCDBF5E
:1000D00011E0A0E0B1E0EAE7FAE002C005900D927D
:1000E000A832B107D9F721E0A8E2B1E001C01D9222
:1000F000AB3DB207E1F710E0C2E6D0E004C02197C3
:10010000FE010E943505C136D107C9F70E9466037A
:100110000C943B050C940000AF92BF92CF92DF92FB
:10012000EF92FF920F931F93CF93DF936C017B01AC
:100130008B01040F151FEB015E01AE18BF08C0173D
:10014000D10759F06991D601ED91FC910190F081B0
:10015000E02DC6010995892B79F7C501DF91CF9173
:100160001F910F91FF90EF90DF90CF90BF90AF90D5
:100170000895FC01538D448D252F30E0842F90E0AD
:10018000821B930B541710F0CF9608950197089592
:10019000FC01918D828D981761F0A28DAE0FBF2F5B
:1001A000B11D5D968C91928D9F5F9F73928F90E0B1
:1001B00008958FEF9FEF0895FC01918D828D981720
:1001C00031F0828DE80FF11D858D90E008958FEF5D
:1001D0009FEF0895FC01918D228D892F90E0805C26
:1001E0009F4F821B91098F739927089583E391E0B4
:1001F0000E94EA0021E0892B09F420E0822F089573
:1002000080E090E0892B29F00E94F60081110C9487
:1002100000000895FC01A48DA80FB92FB11DA35AA9
:10022000BF4F2C91848D90E001968F739927848F16
:10023000A689B7892C93A089B1898C918370806439
:100240008C93938D848D981306C00288F389E02DDA
:1002500080818F7D80830895EF92FF920F931F938B
:10026000CF93DF93EC0181E0888F9B8D8C8D981369
:100270001AC0E889F989808185FF15C09FB7F89475
:10028000EE89FF896083E889F989808183708064C1
:1002900080839FBF81E090E0DF91CF911F910F910C
:1002A000FF90EF900895F62E0B8D10E00F5F1F4F1B
:1002B0000F731127E02E8C8D8E110CC00FB607FC2A
:1002C000FACFE889F989808185FFF5CFCE010E94B8
:1002D0000A01F1CFEB8DEC0FFD2FF11DE35AFF4F1B
:1002E000F0829FB7F8940B8FEA89FB898081806246
:1002F000CFCFCF93DF93EC01888D8823B9F0AA8903
:10030000BB89E889F9898C9185FD03C0808186FDD0
:100310000DC00FB607FCF7CF8C9185FFF2CF80811F
:1003200085FFEDCFCE010E940A01E9CFDF91CF9189
:100330000895833081F028F4813099F08230A9F05B
:1003400008958730A9F08830C9F08430B1F48091E5
:1003500080008F7D03C0809180008F778093800024
:10036000089584B58F7784BD089584B58F7DFBCFC4
:100370008091B0008F778093B00008958091B00095
:100380008F7DF9CFCF93DF93282F30E0F901E2552D
:10039000FF4F8491F901E656FF4FD491F901EA57D6
:1003A000FF4FC491CC23A1F081110E949901EC2F41
:1003B000F0E0EE0FFF1FE458FF4FA591B491EC91D0
:1003C000ED2381E090E009F480E0DF91CF91089582
:1003D00080E090E0FACF1F93CF93DF93282F30E097
:1003E000F901E255FF4F8491F901E656FF4FD49190
:1003F000F901EA57FF4FC491CC23A9F0162F8111C0
:100400000E949901EC2FF0E0EE0FFF1FEE58FF4F16
:10041000A591B4918FB7F894EC91111108C0D095C3
:10042000DE23DC938FBFDF91CF911F910895DE2BE8
:10043000F8CFCF93DF9390E0FC01E656FF4F249175
:100440008A579F4FFC0184918823D1F090E0880F58
:10045000991FFC01E859FF4FA591B491FC01EE589A
:10046000FF4FC591D49161110EC09FB7F8948C9144
:10047000E22FE0958E238C932881E223E8839FBFAF
:10048000DF91CF9108958FB7F894EC91E22BEC9324
:100490008FBFF6CF3FB7F89480912D0190912E0138
:1004A000A0912F01B091300126B5A89B05C02F3F28
:1004B00019F00196A11DB11D3FBFBA2FA92F982F8A
:1004C0008827BC01CD01620F711D811D911D42E085
:1004D000660F771F881F991F4A95D1F70895FC0171
:1004E00001900020E9F73197AF01481B590BBC017F
:1004F00083E391E00C948C001F920F920FB60F9241
:1005000011242F933F934F935F936F937F938F9318
:100510009F93AF93BF93EF93FF9383E391E00E9488
:100520000A01FF91EF91BF91AF919F918F917F91C0
:100530006F915F914F913F912F910F900FBE0F9050
:100540001F9018951F920F920FB60F9211242F93A0
:100550008F939F93EF93FF93E0914301F0914401B8
:100560008081E0914901F0914A0182FD1BC0908198
:1005700080914C018F5F8F7320914D01821741F064
:10058000E0914C01F0E0ED5CFE4F958F80934C01C3
:10059000FF91EF919F918F912F910F900FBE0F9030
:1005A0001F9018958081F4CF1F920F920FB60F9273
:1005B00011242F933F938F939F93AF93BF93809179
:1005C000290190912A01A0912B01B0912C01309129
:1005D000280123E0230F2D3758F50196A11DB11DE9
:1005E000209328018093290190932A01A0932B0145
:1005F000B0932C0180912D0190912E01A0912F019B
:10060000B09130010196A11DB11D80932D019093F1
:100610002E01A0932F01B0933001BF91AF919F9114
:100620008F913F912F910F900FBE0F901F901895B3
:1006300026E8230F0296A11DB11DD2CFCF93DF93E1
:10064000E3E3F1E01382128288EE93E0A0E0B0E0F1
:1006500084839583A683B78384E091E0918380832C
:1006600085EC90E09587848784EC90E09787868777
:1006700080EC90E0918B808B81EC90E0938B828B6F
:1006800082EC90E0958B848B86EC90E0978B868B48
:10069000118E128E138E148EC0EDD1E082E088830D
:1006A00083E089831A8261E082E00E94190260E09F
:1006B00089810E94190280E29EE4A0E0B0E08F836D
:1006C0009887A987BA87DF91CF910895CF93DF9359
:1006D000CDB7DEB7A1970FB6F894DEBF0FBECDBF82
:1006E000789484B5826084BD84B5816084BD85B50D
:1006F000826085BD85B5816085BD80916E00816019
:1007000080936E00109281008091810082608093BE
:1007100081008091810081608093810080918000C0
:100720008160809380008091B10084608093B100EB
:100730008091B00081608093B00080917A008460E5
:1007400080937A0080917A00826080937A00809111
:100750007A00816080937A0080917A00806880932B
:100760007A001092C100E0914301F091440182E0CF
:100770008083E0913F01F09140011082E0914101BE
:10078000F09142018FEC808310924B01E091470180
:10079000F091480186E08083E0914501F0914601A7
:1007A000808180618083E0914501F09146018081E4
:1007B00088608083E0914501F091460180818068E6
:1007C0008083E0914501F091460180818F7D808397
:1007D00098E3292E312C2AE0422E512C612C712CC9
:1007E00000E010E08091D201882329F061E080913F
:1007F000D0010E94190260E08091D0010E94EB01BB
:1008000083E090E00197F1F761E08091D0010E94D0
:10081000EB0183E290E00197F1F760E08091D00175
:100820000E94EB018091D201882329F060E0809141
:10083000D0010E9419020E944A026093D301709372
:10084000D4018093D5019093D6018091D1010E946B
:10085000C201892BD9F40E944A02C090D301D090E2
:10086000D401E090D501F090D6016C197D098E0974
:100870009F09C090D701D090D801E090D901F090A5
:10088000DA01C616D706E806F906F8F60E944A020B
:100890006093D3017093D4018093D5019093D601D6
:1008A0008091D1010E94C201892BD9F00E944A0295
:1008B000C090D301D090D401E090D501F090D60142
:1008C0006C197D098E099F09C090D701D090D8017D
:1008D000E090D901F090DA01C616D706E806F906CD
:1008E000F8F60E944A022091D3013091D401CB0145
:1008F000821B930BB1010E94FF047093320160933D
:10090000310182E191E00E946F02C0903101D090EC
:1009100032010D2C000CEE08FF08F7FE5AC06DE204
:1009200083E391E00E942C0122273327A9012C198F
:100930003D094E095F0919A2CE0181967C01CA01C9
:10094000B901A30192010E941305605DF701629352
:100950007F01211531054105510589F7E114F104A5
:1009600019F0C7010E946F0284E291E00E946F02B9
:100970000E944A024B015C0188EEC82E83E0D82E0B
:10098000E12CF12C0E944A02681979098A099B0915
:10099000683E734081059105A8F3F1E0CF1AD108B4
:1009A000E108F10828EE820E23E0921EA11CB11C82
:1009B000C114D104E104F10429F70115110509F46A
:1009C00011CF0E94F600882309F40CCF0E9400008A
:1009D00009CFA701960119A2CE0181967C01CA0117
:1009E000B901A30192010E941305605DF7016293B2
:1009F0007F01211531054105510589F7AFCFAA1BAC
:100A0000BB1B51E107C0AA1FBB1FA617B70710F0F9
:100A1000A61BB70B881F991F5A95A9F7809590952B
:100A2000BC01CD010895A1E21A2EAA1BBB1BFD013A
:100A30000DC0AA1FBB1FEE1FFF1FA217B307E407BD
:100A4000F50720F0A21BB30BE40BF50B661F771F15
:100A5000881F991F1A9469F76095709580959095F5
:100A60009B01AC01BD01CF010895EE0FFF1F059062
:0A0A7000F491E02D0994F894FFCFF3
:100A7A00000000002C018C00B9007901EA00C800CE
:100A8A00DC0044697374616E63696120656E20439A
:080A9A004D3A20000D0A000096
:00000001FF
