:100000000C9462000C948A000C948A000C948A0070
:100010000C948A000C948A000C948A000C948A0038
:100020000C948A000C948A000C948A000C948A0028
:100030000C948A000C948A000C948A000C948A0018
:100040000C94A6010C948A000C9416020C94F001F6
:100050000C948A000C948A000C948A000C948A00F8
:100060000C948A000C948A000000000025002800EF
:100070002B0000000000240027002A0000000000E0
:1000800023002600290004040404040404040202DA
:100090000202020203030303030301020408102007
:1000A0004080010204081020010204081020000012
:1000B0000008000201000003040700000000000027
:1000C0000000500311241FBECFEFD8E0DEBFCDBF2C
:1000D00011E0A0E0B1E0EAE0F7E002C005900D9287
:1000E000AE31B107D9F721E0AEE1B1E001C01D9218
:1000F000A43CB207E1F710E0C2E6D0E004C02197CB
:10010000FE010E947D03C136D107C9F70E94480253
:100110000C9483030C940000AF92BF92CF92DF92B5
:10012000EF92FF920F931F93CF93DF936C017B01AC
:100130008B01040F151FEB015E01AE18BF08C0173D
:10014000D10759F06991D601ED91FC910190F081B0
:10015000E02DC6010995892B79F7C501DF91CF9173
:100160001F910F91FF90EF90DF90CF90BF90AF90D5
:100170000895FC01538D448D252F30E0842F90E0AD
:10018000821B930B541710F0CF9608950197089592
:10019000FC01918D828D981761F0A28DAE0FBF2F5B
:1001A000B11D5D968C91928D9F5F9F73928F90E0B1
:1001B00008958FEF9FEF0895FC01918D828D981720
:1001C00031F0828DE80FF11D858D90E008958FEF5D
:1001D0009FEF0895FC01918D228D892F90E0805C26
:1001E0009F4F821B91098F739927089587E291E0B1
:1001F0000E94EA0021E0892B09F420E0822F089573
:1002000080E090E0892B29F00E94F60081110C9487
:1002100000000895FC01A48DA80FB92FB11DA35AA9
:10022000BF4F2C91848D90E001968F739927848F16
:10023000A689B7892C93A089B1898C918370806439
:100240008C93938D848D981306C00288F389E02DDA
:1002500080818F7D80830895EF92FF920F931F938B
:10026000CF93DF93EC0181E0888F9B8D8C8D981369
:100270001AC0E889F989808185FF15C09FB7F89475
:10028000EE89FF896083E889F989808183708064C1
:1002900080839FBF81E090E0DF91CF911F910F910C
:1002A000FF90EF900895F62E0B8D10E00F5F1F4F1B
:1002B0000F731127E02E8C8D8E110CC00FB607FC2A
:1002C000FACFE889F989808185FFF5CFCE010E94B8
:1002D0000A01F1CFEB8DEC0FFD2FF11DE35AFF4F1B
:1002E000F0829FB7F8940B8FEA89FB898081806246
:1002F000CFCFCF93DF93EC01888D8823B9F0AA8903
:10030000BB89E889F9898C9185FD03C0808186FDD0
:100310000DC00FB607FCF7CF8C9185FFF2CF80811F
:1003200085FFEDCFCE010E940A01E9CFDF91CF9189
:100330000895FC0101900020E9F73197AF01481BB7
:10034000590BBC0187E291E00C948C001F920F9234
:100350000FB60F9211242F933F938F939F93AF93D8
:10036000BF938091230190912401A0912501B09128
:1003700026013091220123E0230F2D3758F50196F5
:10038000A11DB11D2093220180932301909324018C
:10039000A0932501B093260180911E0190911F0129
:1003A000A0912001B09121010196A11DB11D809362
:1003B0001E0190931F01A0932001B0932101BF91D2
:1003C000AF919F918F913F912F910F900FBE0F9002
:1003D0001F90189526E8230F0296A11DB11DD2CFBC
:1003E0001F920F920FB60F9211242F933F934F93AA
:1003F0005F936F937F938F939F93AF93BF93EF938D
:10040000FF9387E291E00E940A01FF91EF91BF9173
:10041000AF919F918F917F916F915F914F913F919C
:100420002F910F900FBE0F901F9018951F920F9253
:100430000FB60F9211242F938F939F93EF93FF93F7
:10044000E0913701F09138018081E0913D01F09118
:100450003E0182FD1BC09081809140018F5F8F73B0
:1004600020914101821741F0E0914001F0E0E95D07
:10047000FE4F958F80934001FF91EF919F918F9157
:100480002F910F900FBE0F901F9018958081F4CF81
:10049000CF93DF93CDB7DEB7A1970FB6F894DEBF49
:1004A0000FBECDBF789484B5826084BD84B5816071
:1004B00084BD85B5826085BD85B5816085BD80912F
:1004C0006E00816080936E001092810080918100A7
:1004D000826080938100809181008160809381009F
:1004E000809180008160809380008091B100846061
:1004F0008093B1008091B00081608093B0008091C2
:100500007A00846080937A0080917A008260809380
:100510007A0080917A00816080937A0080917A00DD
:10052000806880937A001092C1000CE910E0F80115
:10053000249148E8E42E40E0F42EF70184918823CA
:10054000C9F090E0880F991FFC01EE58FF4FA5916C
:10055000B491FC01E859FF4F459154913FB7F8948D
:100560009C91822F809598239C93FA0190818923F6
:1005700080833FBFE0913701F091380182E08083B2
:10058000E0913301F09134011082E0913501F09156
:1005900036018FEC808310923F01E0913B01F09196
:1005A0003C0186E08083E0913901F0913A0180813D
:1005B00080618083E0913901F0913A018081886007
:1005C0008083E0913901F0913A01808180688083D5
:1005D000E0913901F0913A0180818F7D808390EB29
:1005E000C92E90E0D92E20E0A22E20E0B22E82E18A
:1005F00091E00E949901F6018491F8019491F7012C
:1006000024912223A9F0882339F0833091F138F521
:100610008130A9F18230B9F1E22FF0E0EE0FFF1F37
:10062000E458FF4FA591B4918C91982381E009F48F
:1006300080E019A2805D88A3CE0180960E94990176
:100640008BE191E00E949901A114B10481F20E9412
:10065000F600882309F4CBCF0E940000C8CF873072
:10066000A9F08830C9F08430B9F6809180008F7D80
:1006700003C0809180008F7780938000CDCF84B5B8
:100680008F7784BDC9CF84B58F7DFBCF8091B000BB
:100690008F778093B000C0CF8091B0008F7DF9CF6D
:1006A000E7E2F1E01382128288EE93E0A0E0B0E08E
:1006B00084839583A683B78384E091E091838083CC
:1006C00085EC90E09587848784EC90E09787868717
:1006D00080EC90E0918B808B81EC90E0938B828B0F
:1006E00082EC90E0958B848B86EC90E0978B868BE8
:1006F000118E128E138E148E0895EE0FFF1F05902B
:0A070000F491E02D0994F894FFCF66
:10070A00000000002C018C00B9007901EA00C80041
:0E071A00DC0045737461646F3A20000D0A0024
:00000001FF
