:100000000C9461000C9473000C9473000C947300B6
:100010000C9473000C9473000C9473000C94730094
:100020000C9473000C9473000C9473000C94730084
:100030000C9473000C9473000C9473000C94730074
:100040000C94C2000C9473000C9473000C94730015
:100050000C9473000C9473000C9473000C94730054
:100060000C9473000C94730000000000240027001F
:100070002A0000000000250028002B0000000000DE
:1000800023002600290004040404040404040202DA
:100090000202020203030303030301020408102007
:1000A0004080010204081020010204081020000012
:1000B0000008000201000003040700000000000027
:1000C000000011241FBECFEFD8E0DEBFCDBF21E07E
:1000D000A0E0B1E001C01D92AB30B207E1F70E9491
:1000E0000C010C94D3010C940000833081F028F4AF
:1000F000813099F08230A9F008958730A9F08830D6
:10010000C9F08430B1F4809180008F7D03C080916C
:1001100080008F7780938000089584B58F7784BDA9
:10012000089584B58F7DFBCF8091B0008F77809349
:10013000B00008958091B0008F7DF9CFCF93DF9309
:10014000EAEBF0E08491E6EAF0E0D491E2E9F0E055
:10015000C491CC23A1F081110E947500EC2FF0E036
:10016000EE0FFF1FE458FF4FA591B491EC91ED23E2
:1001700081E090E009F480E0DF91CF91089580E084
:1001800090E0FACF1F920F920FB60F9211242F9387
:100190003F938F939F93AF93BF938091070190916B
:1001A0000801A0910901B0910A013091060123E0F4
:1001B000230F2D3758F50196A11DB11D209306017F
:1001C0008093070190930801A0930901B0930A015D
:1001D0008091020190910301A0910401B091050169
:1001E0000196A11DB11D8093020190930301A0937C
:1001F0000401B0930501BF91AF919F918F913F9101
:100200002F910F900FBE0F901F90189526E8230F87
:100210000296A11DB11DD2CF789484B5826084BDB1
:1002200084B5816084BD85B5826085BD85B58160FA
:1002300085BD80916E00816080936E001092810078
:100240008091810082608093810080918100816033
:1002500080938100809180008160809380008091F4
:10026000B10084608093B1008091B0008160809380
:10027000B00080917A00846080937A0080917A0047
:10028000826080937A0080917A00816080937A0006
:1002900080917A00806880937A001092C100C7EA4A
:1002A000D0E0FE01249103E910E0F8018491882355
:1002B00099F090E0880F991FFC01E859FF4FA59134
:1002C000B491FC01EE58FF4F859194918FB7F8944B
:1002D0009C91292B2C938FBFE6EAF0E02491E2E970
:1002E000F0E084918823C9F090E0880F991FFC0109
:1002F000E859FF4FA591B491FC01EE58FF4F45918D
:1003000054919FB7F8943C91822F809583238C93CE
:10031000DA01EC912E2B2C939FBF992493949BEBA5
:10032000C92E90E0D92E20E0E22E20E0F22E882483
:1003300083940E949E00892B11F4809201010E94F7
:100340009E00019739F580910101882319F11092DF
:100350000101A0900001A924A0920001F60184915E
:10036000FE01B490F80174907720A1F081110E94F1
:100370007500E72DF0E0EE0FFF1FEE58FF4FA5913F
:10038000B4918FB7F8949C91A1100BC0B094B9228E
:10039000BC928FBFE114F10409F4CBCF0E9400009E
:0A03A000C8CFB92AF5CFF894FFCFBB
:00000001FF
