:100000000C9461000C9473000C9473000C947300B6
:100010000C9473000C9473000C9473000C94730094
:100020000C9473000C9473000C9473000C94730084
:100030000C9473000C9473000C9473000C94730074
:100040000C94FD000C9473000C9473000C947300DA
:100050000C9473000C9473000C9473000C94730054
:100060000C9473000C94730000000000240027001F
:100070002A0000000000250028002B0000000000DE
:1000800023002600290004040404040404040202DA
:100090000202020203030303030301020408102007
:1000A0004080010204081020010204081020000012
:1000B0000008000201000003040700000000000027
:1000C000000011241FBECFEFD8E0DEBFCDBF21E07E
:1000D000A0E0B1E001C01D92AF30B207E1F70E948D
:1000E00047010C9401020C940000833081F028F445
:1000F000813099F08230A9F008958730A9F08830D6
:10010000C9F08430B1F4809180008F7D03C080916C
:1001100080008F7780938000089584B58F7784BDA9
:10012000089584B58F7DFBCF8091B0008F77809349
:10013000B00008958091B0008F7DF9CF1F93CF93C9
:10014000DF93282F30E0F901E255FF4F8491F90148
:10015000E656FF4FD491F901EA57FF4FC491CC23E3
:10016000A9F0162F81110E947500EC2FF0E0EE0F20
:10017000FF1FEE58FF4FA591B4918FB7F894EC9103
:10018000111108C0D095DE23DC938FBFDF91CF9192
:100190001F910895DE2BF8CFCF93DF9390E0FC0101
:1001A000E656FF4F24918A579F4FFC018491882384
:1001B000D1F090E0880F991FFC01E859FF4FA591FD
:1001C000B491FC01EE58FF4FC591D491623071F4A7
:1001D0009FB7F8943C91822F809583238C93E8817C
:1001E0002E2B28839FBFDF91CF9108958FB7F8946E
:1001F000EC912E2B2C938FBFF6CF1F920F920FB640
:100200000F9211242F933F938F939F93AF93BF939C
:100210008091050190910601A0910701B09108011C
:100220003091040123E0230F2D3758F50196A11DCD
:10023000B11D209304018093050190930601A093C2
:100240000701B09308018091000190910101A091F4
:100250000201B09103010196A11DB11D809300011F
:1002600090930101A0930201B0930301BF91AF915C
:100270009F918F913F912F910F900FBE0F901F90E4
:10028000189526E8230F0296A11DB11DD2CF7894B0
:1002900084B5826084BD84B5816084BD85B582608B
:1002A00085BD85B5816085BD80916E00816080933C
:1002B0006E001092810080918100826080938100A5
:1002C00080918100816080938100809180008160B5
:1002D000809380008091B10084608093B100809110
:1002E000B00081608093B00080917A008460809338
:1002F0007A0080917A00826080937A0080917A00FF
:10030000816080937A0080917A00806880937A007F
:100310001092C10061E08DE00E94CC0061E08AE0B3
:100320000E94CC0062E082E00E94CC00AA24A39448
:10033000C0EBD0E00CE910E098E8E92E90E0F92E4F
:1003400020E0C22E20E0D22E8FB7F8944091050114
:100350005091060160910701709108018FBF809153
:100360000B0190910C01A0910D01B0910E018C50E8
:100370009E4FAF4FBF4F84179507A607B707D8F416
:100380002FB7F8948091050190910601A091070183
:10039000B09108012FBF80930B0190930C01A093A3
:1003A0000D01B0930E0160910A016A2560930A0164
:1003B0008DE00E949E00FE018491F801B490F70147
:1003C000949091100FC0609109016A256093090112
:1003D0008AE00E949E00C114D10409F4B5CF0E94A6
:1003E0000000B2CF81110E947500E92DF0E0EE0F00
:1003F000FF1FE458FF4FA591B4918C91B82219F3D7
:06040000EACFF894FFCFE3
:00000001FF
